{
  "contractName": "OrganChain",
  "abi": [
    {
      "constant": false,
      "inputs": [
        {
          "name": "_donor_addr",
          "type": "address"
        },
        {
          "name": "_ipfsHash",
          "type": "string"
        },
        {
          "name": "_EMRHash",
          "type": "string"
        },
        {
          "name": "_organ",
          "type": "string"
        },
        {
          "name": "_bloodgroup",
          "type": "string"
        }
      ],
      "name": "addDonor",
      "outputs": [],
      "payable": false,
      "stateMutability": "nonpayable",
      "type": "function"
    },
    {
      "constant": true,
      "inputs": [
        {
          "name": "_donor_addr",
          "type": "address"
        }
      ],
      "name": "getDonor",
      "outputs": [
        {
          "name": "",
          "type": "string"
        },
        {
          "name": "",
          "type": "string"
        },
        {
          "name": "",
          "type": "string"
        },
        {
          "name": "",
          "type": "bool"
        },
        {
          "name": "",
          "type": "address"
        }
      ],
      "payable": false,
      "stateMutability": "view",
      "type": "function"
    },
    {
      "constant": false,
      "inputs": [
        {
          "name": "_recipient_addr",
          "type": "address"
        },
        {
          "name": "_hospital_addr",
          "type": "address"
        },
        {
          "name": "_ipfsHash",
          "type": "string"
        },
        {
          "name": "_EMRHash",
          "type": "string"
        },
        {
          "name": "_organ",
          "type": "string"
        },
        {
          "name": "_bloodgroup",
          "type": "string"
        }
      ],
      "name": "addRecipient",
      "outputs": [],
      "payable": false,
      "stateMutability": "nonpayable",
      "type": "function"
    },
    {
      "constant": true,
      "inputs": [
        {
          "name": "_recipient_addr",
          "type": "address"
        }
      ],
      "name": "getRecipient",
      "outputs": [
        {
          "name": "",
          "type": "address"
        },
        {
          "name": "",
          "type": "string"
        },
        {
          "name": "",
          "type": "string"
        },
        {
          "name": "",
          "type": "string"
        },
        {
          "name": "",
          "type": "bool"
        }
      ],
      "payable": false,
      "stateMutability": "view",
      "type": "function"
    },
    {
      "constant": true,
      "inputs": [
        {
          "name": "_hospital_addr",
          "type": "address"
        }
      ],
      "name": "getRecipientCount",
      "outputs": [
        {
          "name": "",
          "type": "uint256"
        }
      ],
      "payable": false,
      "stateMutability": "view",
      "type": "function"
    },
    {
      "constant": true,
      "inputs": [
        {
          "name": "_hospital_addr",
          "type": "address"
        },
        {
          "name": "i",
          "type": "uint256"
        }
      ],
      "name": "getRecipientDetail",
      "outputs": [
        {
          "name": "",
          "type": "address"
        },
        {
          "name": "",
          "type": "string"
        },
        {
          "name": "",
          "type": "string"
        },
        {
          "name": "",
          "type": "string"
        }
      ],
      "payable": false,
      "stateMutability": "view",
      "type": "function"
    },
    {
      "constant": true,
      "inputs": [
        {
          "name": "_recipient_addr",
          "type": "address"
        }
      ],
      "name": "isMatchFound",
      "outputs": [
        {
          "name": "",
          "type": "bool"
        }
      ],
      "payable": false,
      "stateMutability": "view",
      "type": "function"
    },
    {
      "constant": true,
      "inputs": [
        {
          "name": "_recipient_addr",
          "type": "address"
        }
      ],
      "name": "getMatchedDonor",
      "outputs": [
        {
          "name": "",
          "type": "address"
        }
      ],
      "payable": false,
      "stateMutability": "view",
      "type": "function"
    },
    {
      "constant": true,
      "inputs": [
        {
          "name": "_address",
          "type": "address"
        }
      ],
      "name": "getEMR",
      "outputs": [
        {
          "name": "",
          "type": "string"
        }
      ],
      "payable": false,
      "stateMutability": "view",
      "type": "function"
    },
    {
      "constant": false,
      "inputs": [
        {
          "name": "_recipient_addr",
          "type": "address"
        }
      ],
      "name": "transplantMatch",
      "outputs": [],
      "payable": false,
      "stateMutability": "nonpayable",
      "type": "function"
    }
  ],
  "bytecode": "0x608060405234801561001057600080fd5b50612e31806100206000396000f3006080604052600436106100a4576000357c0100000000000000000000000000000000000000000000000000000000900463ffffffff1680631164de0e146100a957806348803dbf1461016557806362812a39146102c0578063681bc10814610492578063784c413d1461066357806396c59043146106e6578063b02d6cf6146108b8578063c39aeabc1461090f578063e96f2bea1461096a578063f3f7bb5214610ae5575b600080fd5b3480156100b557600080fd5b506100ea600480360381019080803573ffffffffffffffffffffffffffffffffffffffff169060200190929190505050610b28565b6040518080602001828103825283818151815260200191508051906020019080838360005b8381101561012a57808201518184015260208101905061010f565b50505050905090810190601f1680156101575780820380516001836020036101000a031916815260200191505b509250505060405180910390f35b34801561017157600080fd5b506102be600480360381019080803573ffffffffffffffffffffffffffffffffffffffff169060200190929190803590602001908201803590602001908080601f0160208091040260200160405190810160405280939291908181526020018383808284378201915050505050509192919290803590602001908201803590602001908080601f0160208091040260200160405190810160405280939291908181526020018383808284378201915050505050509192919290803590602001908201803590602001908080601f0160208091040260200160405190810160405280939291908181526020018383808284378201915050505050509192919290803590602001908201803590602001908080601f0160208091040260200160405190810160405280939291908181526020018383808284378201915050505050509192919290505050610e82565b005b3480156102cc57600080fd5b50610301600480360381019080803573ffffffffffffffffffffffffffffffffffffffff1690602001909291905050506111a8565b604051808673ffffffffffffffffffffffffffffffffffffffff1673ffffffffffffffffffffffffffffffffffffffff16815260200180602001806020018060200185151515158152602001848103845288818151815260200191508051906020019080838360005b8381101561038557808201518184015260208101905061036a565b50505050905090810190601f1680156103b25780820380516001836020036101000a031916815260200191505b50848103835287818151815260200191508051906020019080838360005b838110156103eb5780820151818401526020810190506103d0565b50505050905090810190601f1680156104185780820380516001836020036101000a031916815260200191505b50848103825286818151815260200191508051906020019080838360005b83811015610451578082015181840152602081019050610436565b50505050905090810190601f16801561047e5780820380516001836020036101000a031916815260200191505b509850505050505050505060405180910390f35b34801561049e57600080fd5b506104dd600480360381019080803573ffffffffffffffffffffffffffffffffffffffff16906020019092919080359060200190929190505050611566565b604051808573ffffffffffffffffffffffffffffffffffffffff1673ffffffffffffffffffffffffffffffffffffffff168152602001806020018060200180602001848103845287818151815260200191508051906020019080838360005b8381101561055757808201518184015260208101905061053c565b50505050905090810190601f1680156105845780820380516001836020036101000a031916815260200191505b50848103835286818151815260200191508051906020019080838360005b838110156105bd5780820151818401526020810190506105a2565b50505050905090810190601f1680156105ea5780820380516001836020036101000a031916815260200191505b50848103825285818151815260200191508051906020019080838360005b83811015610623578082015181840152602081019050610608565b50505050905090810190601f1680156106505780820380516001836020036101000a031916815260200191505b5097505050505050505060405180910390f35b34801561066f57600080fd5b506106a4600480360381019080803573ffffffffffffffffffffffffffffffffffffffff169060200190929190505050611b20565b604051808273ffffffffffffffffffffffffffffffffffffffff1673ffffffffffffffffffffffffffffffffffffffff16815260200191505060405180910390f35b3480156106f257600080fd5b50610727600480360381019080803573ffffffffffffffffffffffffffffffffffffffff169060200190929190505050611b8c565b60405180806020018060200180602001861515151581526020018573ffffffffffffffffffffffffffffffffffffffff1673ffffffffffffffffffffffffffffffffffffffff168152602001848103845289818151815260200191508051906020019080838360005b838110156107ab578082015181840152602081019050610790565b50505050905090810190601f1680156107d85780820380516001836020036101000a031916815260200191505b50848103835288818151815260200191508051906020019080838360005b838110156108115780820151818401526020810190506107f6565b50505050905090810190601f16801561083e5780820380516001836020036101000a031916815260200191505b50848103825287818151815260200191508051906020019080838360005b8381101561087757808201518184015260208101905061085c565b50505050905090810190601f1680156108a45780820380516001836020036101000a031916815260200191505b509850505050505050505060405180910390f35b3480156108c457600080fd5b506108f9600480360381019080803573ffffffffffffffffffffffffffffffffffffffff169060200190929190505050611f4f565b6040518082815260200191505060405180910390f35b34801561091b57600080fd5b50610950600480360381019080803573ffffffffffffffffffffffffffffffffffffffff169060200190929190505050611f9b565b604051808215151515815260200191505060405180910390f35b34801561097657600080fd5b50610ae3600480360381019080803573ffffffffffffffffffffffffffffffffffffffff169060200190929190803573ffffffffffffffffffffffffffffffffffffffff169060200190929190803590602001908201803590602001908080601f0160208091040260200160405190810160405280939291908181526020018383808284378201915050505050509192919290803590602001908201803590602001908080601f0160208091040260200160405190810160405280939291908181526020018383808284378201915050505050509192919290803590602001908201803590602001908080601f0160208091040260200160405190810160405280939291908181526020018383808284378201915050505050509192919290803590602001908201803590602001908080601f0160208091040260200160405190810160405280939291908181526020018383808284378201915050505050509192919290505050611ff3565b005b348015610af157600080fd5b50610b26600480360381019080803573ffffffffffffffffffffffffffffffffffffffff1690602001909291905050506123bb565b005b6060600080600091505b600580549050821015610cd457600582815481101515610b4e57fe5b9060005260206000200160009054906101000a900473ffffffffffffffffffffffffffffffffffffffff1673ffffffffffffffffffffffffffffffffffffffff168473ffffffffffffffffffffffffffffffffffffffff161415610cc75760016000600584815481101515610bbf57fe5b9060005260206000200160009054906101000a900473ffffffffffffffffffffffffffffffffffffffff1673ffffffffffffffffffffffffffffffffffffffff1673ffffffffffffffffffffffffffffffffffffffff1681526020019081526020016000206003018054600181600116156101000203166002900480601f016020809104026020016040519081016040528092919081815260200182805460018160011615610100020316600290048015610cbb5780601f10610c9057610100808354040283529160200191610cbb565b820191906000526020600020905b815481529060010190602001808311610c9e57829003601f168201915b50505050509250610e7b565b8180600101925050610b32565b600090505b600480549050811015610e7a57600481815481101515610cf557fe5b9060005260206000200160009054906101000a900473ffffffffffffffffffffffffffffffffffffffff1673ffffffffffffffffffffffffffffffffffffffff168473ffffffffffffffffffffffffffffffffffffffff161415610e6d57600080600483815481101515610d6557fe5b9060005260206000200160009054906101000a900473ffffffffffffffffffffffffffffffffffffffff1673ffffffffffffffffffffffffffffffffffffffff1673ffffffffffffffffffffffffffffffffffffffff1681526020019081526020016000206003018054600181600116156101000203166002900480601f016020809104026020016040519081016040528092919081815260200182805460018160011615610100020316600290048015610e615780601f10610e3657610100808354040283529160200191610e61565b820191906000526020600020905b815481529060010190602001808311610e4457829003601f168201915b50505050509250610e7b565b8080600101915050610cd9565b5b5050919050565b610e8a612c74565b85600160008273ffffffffffffffffffffffffffffffffffffffff1673ffffffffffffffffffffffffffffffffffffffff16815260200190815260200160002060060160019054906101000a900460ff16151515610ee757600080fd5b866000808273ffffffffffffffffffffffffffffffffffffffff1673ffffffffffffffffffffffffffffffffffffffff16815260200190815260200160002060060160019054906101000a900460ff16151515610f4357600080fd5b610100604051908101604052808973ffffffffffffffffffffffffffffffffffffffff168152602001600073ffffffffffffffffffffffffffffffffffffffff16815260200188815260200187815260200186815260200185815260200160001515815260200160011515815250925082600160008a73ffffffffffffffffffffffffffffffffffffffff1673ffffffffffffffffffffffffffffffffffffffff16815260200190815260200160002060008201518160000160006101000a81548173ffffffffffffffffffffffffffffffffffffffff021916908373ffffffffffffffffffffffffffffffffffffffff16021790555060208201518160010160006101000a81548173ffffffffffffffffffffffffffffffffffffffff021916908373ffffffffffffffffffffffffffffffffffffffff160217905550604082015181600201908051906020019061109d929190612cea565b5060608201518160030190805190602001906110ba929190612cea565b5060808201518160040190805190602001906110d7929190612cea565b5060a08201518160050190805190602001906110f4929190612cea565b5060c08201518160060160006101000a81548160ff02191690831515021790555060e08201518160060160016101000a81548160ff02191690831515021790555090505060058890806001815401808255809150509060018203906000526020600020016000909192909190916101000a81548173ffffffffffffffffffffffffffffffffffffffff021916908373ffffffffffffffffffffffffffffffffffffffff160217905550505050505050505050565b6000606080606060008060008773ffffffffffffffffffffffffffffffffffffffff1673ffffffffffffffffffffffffffffffffffffffff16815260200190815260200160002060060160019054906101000a900460ff16151561120b57600080fd5b6000808773ffffffffffffffffffffffffffffffffffffffff1673ffffffffffffffffffffffffffffffffffffffff16815260200190815260200160002060010160009054906101000a900473ffffffffffffffffffffffffffffffffffffffff166000808873ffffffffffffffffffffffffffffffffffffffff1673ffffffffffffffffffffffffffffffffffffffff1681526020019081526020016000206002016000808973ffffffffffffffffffffffffffffffffffffffff1673ffffffffffffffffffffffffffffffffffffffff1681526020019081526020016000206004016000808a73ffffffffffffffffffffffffffffffffffffffff1673ffffffffffffffffffffffffffffffffffffffff1681526020019081526020016000206005016000808b73ffffffffffffffffffffffffffffffffffffffff1673ffffffffffffffffffffffffffffffffffffffff16815260200190815260200160002060060160009054906101000a900460ff16838054600181600116156101000203166002900480601f0160208091040260200160405190810160405280929190818152602001828054600181600116156101000203166002900480156114145780601f106113e957610100808354040283529160200191611414565b820191906000526020600020905b8154815290600101906020018083116113f757829003601f168201915b50505050509350828054600181600116156101000203166002900480601f0160208091040260200160405190810160405280929190818152602001828054600181600116156101000203166002900480156114b05780601f10611485576101008083540402835291602001916114b0565b820191906000526020600020905b81548152906001019060200180831161149357829003601f168201915b50505050509250818054600181600116156101000203166002900480601f01602080910402602001604051908101604052809291908181526020018280546001816001161561010002031660029004801561154c5780601f106115215761010080835404028352916020019161154c565b820191906000526020600020905b81548152906001019060200180831161152f57829003601f168201915b505050505091509450945094509450945091939590929450565b60006060806060600080600260008973ffffffffffffffffffffffffffffffffffffffff1673ffffffffffffffffffffffffffffffffffffffff168152602001908152602001600020878154811015156115bc57fe5b9060005260206000200160009054906101000a900473ffffffffffffffffffffffffffffffffffffffff1673ffffffffffffffffffffffffffffffffffffffff1673ffffffffffffffffffffffffffffffffffffffff16815260200190815260200160002060060160009054906101000a900460ff161515611b1657600080600260008973ffffffffffffffffffffffffffffffffffffffff1673ffffffffffffffffffffffffffffffffffffffff1681526020019081526020016000208781548110151561168757fe5b9060005260206000200160009054906101000a900473ffffffffffffffffffffffffffffffffffffffff1673ffffffffffffffffffffffffffffffffffffffff1673ffffffffffffffffffffffffffffffffffffffff16815260200190815260200160002060000160009054906101000a900473ffffffffffffffffffffffffffffffffffffffff16600080600260008a73ffffffffffffffffffffffffffffffffffffffff1673ffffffffffffffffffffffffffffffffffffffff1681526020019081526020016000208881548110151561175f57fe5b9060005260206000200160009054906101000a900473ffffffffffffffffffffffffffffffffffffffff1673ffffffffffffffffffffffffffffffffffffffff1673ffffffffffffffffffffffffffffffffffffffff168152602001908152602001600020600201600080600260008b73ffffffffffffffffffffffffffffffffffffffff1673ffffffffffffffffffffffffffffffffffffffff1681526020019081526020016000208981548110151561181657fe5b9060005260206000200160009054906101000a900473ffffffffffffffffffffffffffffffffffffffff1673ffffffffffffffffffffffffffffffffffffffff1673ffffffffffffffffffffffffffffffffffffffff168152602001908152602001600020600401600080600260008c73ffffffffffffffffffffffffffffffffffffffff1673ffffffffffffffffffffffffffffffffffffffff1681526020019081526020016000208a8154811015156118cd57fe5b9060005260206000200160009054906101000a900473ffffffffffffffffffffffffffffffffffffffff1673ffffffffffffffffffffffffffffffffffffffff1673ffffffffffffffffffffffffffffffffffffffff168152602001908152602001600020600501828054600181600116156101000203166002900480601f0160208091040260200160405190810160405280929190818152602001828054600181600116156101000203166002900480156119ca5780601f1061199f576101008083540402835291602001916119ca565b820191906000526020600020905b8154815290600101906020018083116119ad57829003601f168201915b50505050509250818054600181600116156101000203166002900480601f016020809104026020016040519081016040528092919081815260200182805460018160011615610100020316600290048015611a665780601f10611a3b57610100808354040283529160200191611a66565b820191906000526020600020905b815481529060010190602001808311611a4957829003601f168201915b50505050509150808054600181600116156101000203166002900480601f016020809104026020016040519081016040528092919081815260200182805460018160011615610100020316600290048015611b025780601f10611ad757610100808354040283529160200191611b02565b820191906000526020600020905b815481529060010190602001808311611ae557829003601f168201915b505050505090509350935093509350611b17565b5b92959194509250565b6000600360008373ffffffffffffffffffffffffffffffffffffffff1673ffffffffffffffffffffffffffffffffffffffff16815260200190815260200160002060010160009054906101000a900473ffffffffffffffffffffffffffffffffffffffff169050919050565b6060806060600080600160008773ffffffffffffffffffffffffffffffffffffffff1673ffffffffffffffffffffffffffffffffffffffff16815260200190815260200160002060060160019054906101000a900460ff161515611bef57600080fd5b600160008773ffffffffffffffffffffffffffffffffffffffff1673ffffffffffffffffffffffffffffffffffffffff168152602001908152602001600020600201600160008873ffffffffffffffffffffffffffffffffffffffff1673ffffffffffffffffffffffffffffffffffffffff168152602001908152602001600020600401600160008973ffffffffffffffffffffffffffffffffffffffff1673ffffffffffffffffffffffffffffffffffffffff168152602001908152602001600020600501600160008a73ffffffffffffffffffffffffffffffffffffffff1673ffffffffffffffffffffffffffffffffffffffff16815260200190815260200160002060060160009054906101000a900460ff16600160008b73ffffffffffffffffffffffffffffffffffffffff1673ffffffffffffffffffffffffffffffffffffffff16815260200190815260200160002060010160009054906101000a900473ffffffffffffffffffffffffffffffffffffffff16848054600181600116156101000203166002900480601f016020809104026020016040519081016040528092919081815260200182805460018160011615610100020316600290048015611dfd5780601f10611dd257610100808354040283529160200191611dfd565b820191906000526020600020905b815481529060010190602001808311611de057829003601f168201915b50505050509450838054600181600116156101000203166002900480601f016020809104026020016040519081016040528092919081815260200182805460018160011615610100020316600290048015611e995780601f10611e6e57610100808354040283529160200191611e99565b820191906000526020600020905b815481529060010190602001808311611e7c57829003601f168201915b50505050509350828054600181600116156101000203166002900480601f016020809104026020016040519081016040528092919081815260200182805460018160011615610100020316600290048015611f355780601f10611f0a57610100808354040283529160200191611f35565b820191906000526020600020905b815481529060010190602001808311611f1857829003601f168201915b505050505092509450945094509450945091939590929450565b6000600260008373ffffffffffffffffffffffffffffffffffffffff1673ffffffffffffffffffffffffffffffffffffffff168152602001908152602001600020805490509050919050565b60008060008373ffffffffffffffffffffffffffffffffffffffff1673ffffffffffffffffffffffffffffffffffffffff16815260200190815260200160002060060160009054906101000a900460ff169050919050565b611ffb612d6a565b866000808273ffffffffffffffffffffffffffffffffffffffff1673ffffffffffffffffffffffffffffffffffffffff16815260200190815260200160002060060160019054906101000a900460ff1615151561205757600080fd5b87600160008273ffffffffffffffffffffffffffffffffffffffff1673ffffffffffffffffffffffffffffffffffffffff16815260200190815260200160002060060160019054906101000a900460ff161515156120b457600080fd5b610100604051908101604052808a73ffffffffffffffffffffffffffffffffffffffff1681526020018973ffffffffffffffffffffffffffffffffffffffff168152602001888152602001878152602001868152602001858152602001600015158152602001600115158152509250826000808b73ffffffffffffffffffffffffffffffffffffffff1673ffffffffffffffffffffffffffffffffffffffff16815260200190815260200160002060008201518160000160006101000a81548173ffffffffffffffffffffffffffffffffffffffff021916908373ffffffffffffffffffffffffffffffffffffffff16021790555060208201518160010160006101000a81548173ffffffffffffffffffffffffffffffffffffffff021916908373ffffffffffffffffffffffffffffffffffffffff160217905550604082015181600201908051906020019061220c929190612cea565b506060820151816003019080519060200190612229929190612cea565b506080820151816004019080519060200190612246929190612cea565b5060a0820151816005019080519060200190612263929190612cea565b5060c08201518160060160006101000a81548160ff02191690831515021790555060e08201518160060160016101000a81548160ff02191690831515021790555090505060048990806001815401808255809150509060018203906000526020600020016000909192909190916101000a81548173ffffffffffffffffffffffffffffffffffffffff021916908373ffffffffffffffffffffffffffffffffffffffff16021790555050600260008973ffffffffffffffffffffffffffffffffffffffff1673ffffffffffffffffffffffffffffffffffffffff1681526020019081526020016000208990806001815401808255809150509060018203906000526020600020016000909192909190916101000a81548173ffffffffffffffffffffffffffffffffffffffff021916908373ffffffffffffffffffffffffffffffffffffffff16021790555050505050505050505050565b60008090505b600580549050811015612c7057600160006005838154811015156123e157fe5b9060005260206000200160009054906101000a900473ffffffffffffffffffffffffffffffffffffffff1673ffffffffffffffffffffffffffffffffffffffff1673ffffffffffffffffffffffffffffffffffffffff16815260200190815260200160002060060160009054906101000a900460ff161580156126cd57506001600060058381548110151561247257fe5b9060005260206000200160009054906101000a900473ffffffffffffffffffffffffffffffffffffffff1673ffffffffffffffffffffffffffffffffffffffff1673ffffffffffffffffffffffffffffffffffffffff16815260200190815260200160002060040160405160200180828054600181600116156101000203166002900480156125385780601f10612516576101008083540402835291820191612538565b820191906000526020600020905b815481529060010190602001808311612524575b50509150506040516020818303038152906040526040518082805190602001908083835b602083101515612581578051825260208201915060208101905060208303925061255c565b6001836020036101000a0380198251168184511680821785525050505050509050019150506040518091039020600019166000808473ffffffffffffffffffffffffffffffffffffffff1673ffffffffffffffffffffffffffffffffffffffff16815260200190815260200160002060040160405160200180828054600181600116156101000203166002900480156126515780601f1061262f576101008083540402835291820191612651565b820191906000526020600020905b81548152906001019060200180831161263d575b50509150506040516020818303038152906040526040518082805190602001908083835b60208310151561269a5780518252602082019150602081019050602083039250612675565b6001836020036101000a038019825116818451168082178552505050505050905001915050604051809103902060001916145b80156129425750600160006005838154811015156126e757fe5b9060005260206000200160009054906101000a900473ffffffffffffffffffffffffffffffffffffffff1673ffffffffffffffffffffffffffffffffffffffff1673ffffffffffffffffffffffffffffffffffffffff16815260200190815260200160002060050160405160200180828054600181600116156101000203166002900480156127ad5780601f1061278b5761010080835404028352918201916127ad565b820191906000526020600020905b815481529060010190602001808311612799575b50509150506040516020818303038152906040526040518082805190602001908083835b6020831015156127f657805182526020820191506020810190506020830392506127d1565b6001836020036101000a0380198251168184511680821785525050505050509050019150506040518091039020600019166000808473ffffffffffffffffffffffffffffffffffffffff1673ffffffffffffffffffffffffffffffffffffffff16815260200190815260200160002060050160405160200180828054600181600116156101000203166002900480156128c65780601f106128a45761010080835404028352918201916128c6565b820191906000526020600020905b8154815290600101906020018083116128b2575b50509150506040516020818303038152906040526040518082805190602001908083835b60208310151561290f57805182526020820191506020810190506020830392506128ea565b6001836020036101000a038019825116818451168082178552505050505050905001915050604051809103902060001916145b15612c63576060604051908101604052808373ffffffffffffffffffffffffffffffffffffffff16815260200160058381548110151561297e57fe5b9060005260206000200160009054906101000a900473ffffffffffffffffffffffffffffffffffffffff1673ffffffffffffffffffffffffffffffffffffffff16815260200160011515815250600360008473ffffffffffffffffffffffffffffffffffffffff1673ffffffffffffffffffffffffffffffffffffffff16815260200190815260200160002060008201518160000160006101000a81548173ffffffffffffffffffffffffffffffffffffffff021916908373ffffffffffffffffffffffffffffffffffffffff16021790555060208201518160010160006101000a81548173ffffffffffffffffffffffffffffffffffffffff021916908373ffffffffffffffffffffffffffffffffffffffff16021790555060408201518160010160146101000a81548160ff0219169083151502179055509050508160016000600584815481101515612acf57fe5b9060005260206000200160009054906101000a900473ffffffffffffffffffffffffffffffffffffffff1673ffffffffffffffffffffffffffffffffffffffff1673ffffffffffffffffffffffffffffffffffffffff16815260200190815260200160002060010160006101000a81548173ffffffffffffffffffffffffffffffffffffffff021916908373ffffffffffffffffffffffffffffffffffffffff16021790555060016000808473ffffffffffffffffffffffffffffffffffffffff1673ffffffffffffffffffffffffffffffffffffffff16815260200190815260200160002060060160006101000a81548160ff0219169083151502179055506001806000600584815481101515612be357fe5b9060005260206000200160009054906101000a900473ffffffffffffffffffffffffffffffffffffffff1673ffffffffffffffffffffffffffffffffffffffff1673ffffffffffffffffffffffffffffffffffffffff16815260200190815260200160002060060160006101000a81548160ff0219169083151502179055505b80806001019150506123c1565b5050565b61010060405190810160405280600073ffffffffffffffffffffffffffffffffffffffff168152602001600073ffffffffffffffffffffffffffffffffffffffff168152602001606081526020016060815260200160608152602001606081526020016000151581526020016000151581525090565b828054600181600116156101000203166002900490600052602060002090601f016020900481019282601f10612d2b57805160ff1916838001178555612d59565b82800160010185558215612d59579182015b82811115612d58578251825591602001919060010190612d3d565b5b509050612d669190612de0565b5090565b61010060405190810160405280600073ffffffffffffffffffffffffffffffffffffffff168152602001600073ffffffffffffffffffffffffffffffffffffffff168152602001606081526020016060815260200160608152602001606081526020016000151581526020016000151581525090565b612e0291905b80821115612dfe576000816000905550600101612de6565b5090565b905600a165627a7a7230582075244bc5323b42438d26c9e3c32dbd80c7c87035ab1216f36b7bbe8f041d96bb0029",
  "source": "    pragma solidity 0.4.22;\r\n\r\ncontract OrganChain{\r\n    \r\n    struct Recipient{\r\n        address recipientId;\r\n        address hospitalId;\r\n        string ipfsHash;\r\n        string EMRHash;\r\n        string organ;\r\n        string bloodgroup;\r\n        bool matchFound;\r\n        bool exist;\r\n    }\r\n    \r\n    struct Donor{\r\n        address donorId;\r\n        address recipientId;\r\n        string ipfsHash;\r\n        string EMRHash;\r\n        string organ;\r\n        string bloodgroup;\r\n        bool matchFound;\r\n        bool exist;\r\n    }\r\n    \r\n    struct Transplant{\r\n        address recipientId;\r\n        address donorId;\r\n        bool exist;\r\n    }\r\n    \r\n    \r\n    mapping(address => Recipient) Recipients;\r\n    mapping(address => Donor) Donors;\r\n    mapping(address => address[]) Hospital_Recipients;\r\n    mapping(address => Transplant) Transplants;\r\n    \r\n    address[] recipient_arr;\r\n    address[] donor_arr;\r\n    \r\n    modifier checkRecipientExist(address _addr){\r\n        require(!Recipients[_addr].exist);\r\n        _;\r\n    }\r\n    \r\n     modifier checkDonorExist(address _addr){\r\n        require(!Donors[_addr].exist);\r\n        _;\r\n    }\r\n    \r\n    function addDonor(\r\n        address _donor_addr, \r\n        string memory _ipfsHash,\r\n        string memory _EMRHash,\r\n        string  _organ, \r\n        string  _bloodgroup) public checkDonorExist(_donor_addr) checkRecipientExist(_donor_addr)\r\n        {\r\n            Donor memory newDonor = Donor({\r\n                donorId : _donor_addr,\r\n                recipientId : address(0x0),\r\n                ipfsHash : _ipfsHash,\r\n                EMRHash : _EMRHash,\r\n                organ : _organ,\r\n                bloodgroup : _bloodgroup,\r\n                matchFound : false,\r\n                exist : true\r\n            });\r\n            Donors[_donor_addr] = newDonor;\r\n            donor_arr.push(_donor_addr);\r\n        }\r\n    \r\n    function getDonor(address _donor_addr) public view returns ( string memory, string, string, bool, address){\r\n            require(Donors[_donor_addr].exist);\r\n            return(\r\n                Donors[_donor_addr].ipfsHash,\r\n                Donors[_donor_addr].organ,\r\n                Donors[_donor_addr].bloodgroup,\r\n                Donors[_donor_addr].matchFound,\r\n                Donors[_donor_addr].recipientId\r\n            );\r\n    }\r\n    \r\n    function addRecipient(\r\n        address _recipient_addr,\r\n        address _hospital_addr,\r\n        string memory _ipfsHash,\r\n        string memory _EMRHash,\r\n        string _organ, \r\n        string _bloodgroup) public checkRecipientExist(_recipient_addr) checkDonorExist(_recipient_addr)\r\n        {\r\n            Recipient memory newRecipient = Recipient({\r\n                recipientId : _recipient_addr,\r\n                hospitalId : _hospital_addr,\r\n                ipfsHash : _ipfsHash,\r\n                EMRHash : _EMRHash,\r\n                organ : _organ,\r\n                bloodgroup : _bloodgroup,\r\n                matchFound : false,\r\n                exist : true\r\n            });\r\n            Recipients[_recipient_addr] = newRecipient;\r\n            recipient_arr.push(_recipient_addr);\r\n            Hospital_Recipients[_hospital_addr].push(_recipient_addr);\r\n        }\r\n    \r\n    function getRecipient(address _recipient_addr) public view returns ( address, string memory, string, string, bool){\r\n            require(Recipients[_recipient_addr].exist);\r\n            return(\r\n                Recipients[_recipient_addr].hospitalId,\r\n                Recipients[_recipient_addr].ipfsHash,\r\n                Recipients[_recipient_addr].organ,\r\n                Recipients[_recipient_addr].bloodgroup,\r\n                Recipients[_recipient_addr].matchFound\r\n           );\r\n    }\r\n    \r\n    function getRecipientCount(address _hospital_addr) public view returns(uint256)\r\n    {\r\n        return(Hospital_Recipients[_hospital_addr].length);\r\n    }\r\n    \r\n    function getRecipientDetail(address _hospital_addr, uint256 i) public view returns(address, string memory, string, string){  \r\n            if(!Recipients[Hospital_Recipients[_hospital_addr][i]].matchFound){\r\n                return(\r\n                    Recipients[Hospital_Recipients[_hospital_addr][i]].recipientId,\r\n                    Recipients[Hospital_Recipients[_hospital_addr][i]].ipfsHash,\r\n                    Recipients[Hospital_Recipients[_hospital_addr][i]].organ,\r\n                    Recipients[Hospital_Recipients[_hospital_addr][i]].bloodgroup\r\n                );\r\n            }\r\n    }\r\n    \r\n    function isMatchFound(address _recipient_addr) public view returns(bool){\r\n        return Recipients[_recipient_addr].matchFound;\r\n    }\r\n    \r\n    function getMatchedDonor(address _recipient_addr) public view returns(address){\r\n        return(\r\n            Transplants[_recipient_addr].donorId       \r\n        );\r\n    }\r\n    \r\n    function getEMR(address _address) public view returns (string memory) {\r\n        for(uint i=0 ; i<donor_arr.length ; i++)\r\n        {\r\n            if(_address == donor_arr[i])\r\n                return(Donors[donor_arr[i]].EMRHash);\r\n        }\r\n        for(uint j=0 ; j<recipient_arr.length ; j++)\r\n        {\r\n            if(_address ==  recipient_arr[j])\r\n                return(Recipients[recipient_arr[j]].EMRHash);\r\n        }\r\n    }\r\n    \r\n    function transplantMatch(address _recipient_addr) public  {\r\n        for(uint i=0 ; i<donor_arr.length ; i++)\r\n        {\r\n            if( !Donors[donor_arr[i]].matchFound \r\n            && (keccak256(abi.encodePacked(Recipients[_recipient_addr].organ)) == keccak256(abi.encodePacked(Donors[donor_arr[i]].organ))) \r\n            && (keccak256(abi.encodePacked(Recipients[_recipient_addr].bloodgroup)) == keccak256(abi.encodePacked(Donors[donor_arr[i]].bloodgroup))))\r\n            {   \r\n                Transplants[_recipient_addr] = Transplant(_recipient_addr,donor_arr[i],true);\r\n                Donors[donor_arr[i]].recipientId = _recipient_addr;\r\n                Recipients[_recipient_addr].matchFound = true;\r\n                Donors[donor_arr[i]].matchFound = true;\r\n            }\r\n        }\r\n    }\r\n}",
  "sourcePath": "C:\\Users\\User\\desktop\\OrganChain\\CLIENT\\src\\ethereum\\contracts\\OrganChain.sol",
  "compiler": {
    "name": "solc",
    "version": "0.4.22+commit.4cb486ee.Emscripten.clang"
  },
  "schemaVersion": "3.4.10",
  "updatedAt": "2022-11-11T05:47:01.422Z",
  "devdoc": {
    "methods": {}
  },
  "userdoc": {
    "methods": {}
  }
}